{
  "abi": [
    {
      "type": "constructor",
      "inputs": [
        {
          "name": "_timelock",
          "type": "address",
          "internalType": "address"
        },
        {
          "name": "_maxTradeBps",
          "type": "uint256",
          "internalType": "uint256"
        },
        {
          "name": "_maxSlippageBps",
          "type": "uint256",
          "internalType": "uint256"
        },
        {
          "name": "_tradeCooldownSec",
          "type": "uint256",
          "internalType": "uint256"
        }
      ],
      "stateMutability": "nonpayable"
    },
    {
      "type": "function",
      "name": "MAX_BPS",
      "inputs": [],
      "outputs": [
        {
          "name": "",
          "type": "uint256",
          "internalType": "uint256"
        }
      ],
      "stateMutability": "view"
    },
    {
      "type": "function",
      "name": "TIMELOCK",
      "inputs": [],
      "outputs": [
        {
          "name": "",
          "type": "address",
          "internalType": "address"
        }
      ],
      "stateMutability": "view"
    },
    {
      "type": "function",
      "name": "getRiskParameters",
      "inputs": [],
      "outputs": [
        {
          "name": "_maxTradeBps",
          "type": "uint256",
          "internalType": "uint256"
        },
        {
          "name": "_maxSlippageBps",
          "type": "uint256",
          "internalType": "uint256"
        },
        {
          "name": "_tradeCooldownSec",
          "type": "uint256",
          "internalType": "uint256"
        }
      ],
      "stateMutability": "view"
    },
    {
      "type": "function",
      "name": "maxSlippageBps",
      "inputs": [],
      "outputs": [
        {
          "name": "",
          "type": "uint256",
          "internalType": "uint256"
        }
      ],
      "stateMutability": "view"
    },
    {
      "type": "function",
      "name": "maxTradeBps",
      "inputs": [],
      "outputs": [
        {
          "name": "",
          "type": "uint256",
          "internalType": "uint256"
        }
      ],
      "stateMutability": "view"
    },
    {
      "type": "function",
      "name": "setMaxSlippageBps",
      "inputs": [
        {
          "name": "newMaxSlippageBps",
          "type": "uint256",
          "internalType": "uint256"
        }
      ],
      "outputs": [],
      "stateMutability": "nonpayable"
    },
    {
      "type": "function",
      "name": "setMaxTradeBps",
      "inputs": [
        {
          "name": "newMaxTradeBps",
          "type": "uint256",
          "internalType": "uint256"
        }
      ],
      "outputs": [],
      "stateMutability": "nonpayable"
    },
    {
      "type": "function",
      "name": "setParameters",
      "inputs": [
        {
          "name": "newMaxTradeBps",
          "type": "uint256",
          "internalType": "uint256"
        },
        {
          "name": "newMaxSlippageBps",
          "type": "uint256",
          "internalType": "uint256"
        },
        {
          "name": "newTradeCooldownSec",
          "type": "uint256",
          "internalType": "uint256"
        }
      ],
      "outputs": [],
      "stateMutability": "nonpayable"
    },
    {
      "type": "function",
      "name": "setTradeCooldownSec",
      "inputs": [
        {
          "name": "newTradeCooldownSec",
          "type": "uint256",
          "internalType": "uint256"
        }
      ],
      "outputs": [],
      "stateMutability": "nonpayable"
    },
    {
      "type": "function",
      "name": "tradeCooldownSec",
      "inputs": [],
      "outputs": [
        {
          "name": "",
          "type": "uint256",
          "internalType": "uint256"
        }
      ],
      "stateMutability": "view"
    },
    {
      "type": "event",
      "name": "ParamsUpdated",
      "inputs": [
        {
          "name": "oldMaxTradeBps",
          "type": "uint256",
          "indexed": false,
          "internalType": "uint256"
        },
        {
          "name": "newMaxTradeBps",
          "type": "uint256",
          "indexed": false,
          "internalType": "uint256"
        },
        {
          "name": "oldMaxSlippageBps",
          "type": "uint256",
          "indexed": false,
          "internalType": "uint256"
        },
        {
          "name": "newMaxSlippageBps",
          "type": "uint256",
          "indexed": false,
          "internalType": "uint256"
        },
        {
          "name": "oldTradeCooldownSec",
          "type": "uint256",
          "indexed": false,
          "internalType": "uint256"
        },
        {
          "name": "newTradeCooldownSec",
          "type": "uint256",
          "indexed": false,
          "internalType": "uint256"
        },
        {
          "name": "timestamp",
          "type": "uint256",
          "indexed": false,
          "internalType": "uint256"
        }
      ],
      "anonymous": false
    },
    {
      "type": "error",
      "name": "InvalidBps",
      "inputs": []
    },
    {
      "type": "error",
      "name": "NotTimelock",
      "inputs": [
        {
          "name": "caller",
          "type": "address",
          "internalType": "address"
        },
        {
          "name": "timelock",
          "type": "address",
          "internalType": "address"
        }
      ]
    },
    {
      "type": "error",
      "name": "ZeroAddress",
      "inputs": []
    }
  ],
  "bytecode": {
    "object": "0x60a0346100eb57601f6104e038819003918201601f191683019291906001600160401b038411838510176100ef5781608092849260409687528339810103126100eb5780516001600160a01b03811691908281036100eb5760208201519060608584015193015193156100da576127108083116100c95783116100b8576080525f55600155600255516103dc9081610104823960805181818160a10152818161018f015281816101f00152818161026301526102b80152f35b845163c6cc5d7f60e01b8152600490fd5b855163c6cc5d7f60e01b8152600490fd5b845163d92e233d60e01b8152600490fd5b5f80fd5b634e487b7160e01b5f52604160045260245ffdfe608060409080825260049081361015610016575f80fd5b5f3560e01c90816325fc1b3d146102a35750806334c5d2ce1461024f5780634656988b146102325780635ce942ee146101dc57806371e63012146101be5780637aadef8b1461017b578063ba94626c1461014d578063c4aa73951461012f578063fd967f47146101135763ff3a24d41461008e575f80fd5b3461010f57602036600319011261010f577f0000000000000000000000000000000000000000000000000000000000000000916001600160a01b03831633036100e4576100e2826001546002549135610321565b005b5163673d8aa360e11b8152339181019182526001600160a01b03909216602082015281906040010390fd5b5f80fd5b823461010f575f36600319011261010f57602090516127108152f35b823461010f575f36600319011261010f576020906001549051908152f35b823461010f575f36600319011261010f576060905f5490600154906002549181519384526020840152820152f35b823461010f575f36600319011261010f57517f00000000000000000000000000000000000000000000000000000000000000006001600160a01b03168152602090f35b823461010f575f36600319011261010f576020906002549051908152f35b503461010f57602036600319011261010f577f0000000000000000000000000000000000000000000000000000000000000000916001600160a01b03831633036100e4576100e2825f5490359060015490610321565b823461010f575f36600319011261010f576020905f549051908152f35b503461010f57606036600319011261010f577f0000000000000000000000000000000000000000000000000000000000000000916001600160a01b03831633036100e4576100e26044356024358435610321565b90503461010f57602036600319011261010f577f00000000000000000000000000000000000000000000000000000000000000006001600160a01b03811633036102f8576100e2835f54600254913590610321565b63673d8aa360e11b8252339282019283526001600160a01b031660208301529081906040010390fd5b90612710808311610394578111610394577f0a44ab5c83303e6925191b58cd03588db45a8a693a5bb383fd98ecd456cd7e4d9260e0925f549260015460025492805f558260015584600255604051958652602086015260408501526060840152608083015260a08201524260c0820152a1565b60405163c6cc5d7f60e01b8152600490fdfea26469706673582212207f4491f63d4e1c6237a8259b33467f7341a746a82ba5f92dda4511fcde2391e364736f6c63430008190033",
    "linkReferences": {}
  },
  "methodIdentifiers": {
    "MAX_BPS()": "fd967f47",
    "TIMELOCK()": "7aadef8b",
    "getRiskParameters()": "ba94626c",
    "maxSlippageBps()": "c4aa7395",
    "maxTradeBps()": "4656988b",
    "setMaxSlippageBps(uint256)": "25fc1b3d",
    "setMaxTradeBps(uint256)": "ff3a24d4",
    "setParameters(uint256,uint256,uint256)": "34c5d2ce",
    "setTradeCooldownSec(uint256)": "5ce942ee",
    "tradeCooldownSec()": "71e63012"
  },
  "id": 70
}